{"abi":[{"type":"constructor","inputs":[{"name":"_authority","type":"address","internalType":"address"},{"name":"_registry","type":"address","internalType":"address"}],"stateMutability":"nonpayable"},{"type":"function","name":"authority","inputs":[],"outputs":[{"name":"","type":"address","internalType":"address"}],"stateMutability":"view"},{"type":"function","name":"evidenceHashUsed","inputs":[{"name":"","type":"bytes32","internalType":"bytes32"}],"outputs":[{"name":"","type":"bool","internalType":"bool"}],"stateMutability":"view"},{"type":"function","name":"registry","inputs":[],"outputs":[{"name":"","type":"address","internalType":"contract IRegistryGate"}],"stateMutability":"view"},{"type":"function","name":"requestUnlock","inputs":[{"name":"escrowId","type":"bytes32","internalType":"bytes32"},{"name":"recipientHybridPk","type":"bytes","internalType":"bytes"},{"name":"evidenceHash","type":"bytes32","internalType":"bytes32"},{"name":"kindHash","type":"bytes32","internalType":"bytes32"},{"name":"referenceHash","type":"bytes32","internalType":"bytes32"},{"name":"issuedAt","type":"uint64","internalType":"uint64"},{"name":"authoritySig","type":"bytes","internalType":"bytes"}],"outputs":[],"stateMutability":"nonpayable"},{"type":"event","name":"Unlock","inputs":[{"name":"escrowId","type":"bytes32","indexed":true,"internalType":"bytes32"},{"name":"recipientHybridPk","type":"bytes","indexed":false,"internalType":"bytes"}],"anonymous":false},{"type":"event","name":"UnlockEvidence","inputs":[{"name":"escrowId","type":"bytes32","indexed":true,"internalType":"bytes32"},{"name":"kindHash","type":"bytes32","indexed":false,"internalType":"bytes32"},{"name":"referenceHash","type":"bytes32","indexed":false,"internalType":"bytes32"},{"name":"evidenceHash","type":"bytes32","indexed":false,"internalType":"bytes32"},{"name":"issuedAt","type":"uint64","indexed":false,"internalType":"uint64"}],"anonymous":false},{"type":"error","name":"BadAuthoritySig","inputs":[]},{"type":"error","name":"BadSigLength","inputs":[]},{"type":"error","name":"EvidenceReplayed","inputs":[]},{"type":"error","name":"ZeroAddr","inputs":[]}],"bytecode":{"object":"0x60c0346100ba57601f61052438819003918201601f19168301916001600160401b038311848410176100be5780849260409485528339810103126100ba57610052602061004b836100d2565b92016100d2565b6001600160a01b03918083161580156100b0575b61009e576080521660a05260405161043d90816100e782396080518181816061015261022b015260a05181818160d9015261026a0152f35b60405163ae9954c360e01b8152600490fd5b5082821615610066565b5f80fd5b634e487b7160e01b5f52604160045260245ffd5b51906001600160a01b03821682036100ba5756fe6080604081815260049182361015610015575f80fd5b5f925f3560e01c9182633a229a9514610108575081637b103999146100c4578163bc5b4fcb14610094575063bf7e214f1461004e575f80fd5b34610090578160031936011261009057517f00000000000000000000000000000000000000000000000000000000000000006001600160a01b03168152602090f35b5080fd5b9050346100c05760203660031901126100c0578160209360ff9235815280855220541690519015158152f35b8280fd5b505034610090578160031936011261009057517f00000000000000000000000000000000000000000000000000000000000000006001600160a01b03168152602090f35b909291503461036d5760e036600319011261036d5782359267ffffffffffffffff9260243584811161036d5761014190369084016103b9565b949092604435606435926084359060a4359381851680950361036d5760c43582811161036d5761017490369083016103b9565b90855f5260209a5f8c5260ff8a5f2054166103ab5750888d8c6101ac8f8e9060c08651968795860196875285015260e08401916103e7565b8960608301528b60808301528860a08301528a60c083015203601f801991828101855201168201918083108784111761039857828c52519020926040190161038a575060808b92835f938c519283528c810135851a8284015280358d8401520135606082015282805260015afa15610380575f516001600160a01b03907f000000000000000000000000000000000000000000000000000000000000000082169082160361037157845f525f8a52875f20600160ff198254161790557f00000000000000000000000000000000000000000000000000000000000000001691823b1561036d575f809360248e8b519687938492630bea9bed60e41b8452888401525af1801561036357610335575b50505060807f4224185f8659bd8b890658cc5ff99864af70ef78f5337702996a0fb598850bf89897969486948b947f64679ce5cc1997876036a95055be8884441d78244aad7cf53009b84f2663175d9461032f99519384528a840152868301526060820152a2519383859485528401916103e7565b0390a280f35b909180939c5011610350575084525f9860808461032f6102ba565b604190634e487b7160e01b5f525260245ffd5b88513d5f823e3d90fd5b5f80fd5b5086516361bc99ab60e11b8152fd5b86513d5f823e3d90fd5b63422f9e3360e01b81528390fd5b604186634e487b7160e01b5f525260245ffd5b636e10d14960e01b81528390fd5b9181601f8401121561036d5782359167ffffffffffffffff831161036d576020838186019501011161036d57565b908060209392818452848401375f828201840152601f01601f191601019056fea26469706673582212206a5bb64aed4147cf0084d3e16351c9ea2be69013292d3c605159dd9ac456993d64736f6c63430008180033","linkReferences":{}},"methodIdentifiers":{"authority()":"bf7e214f","evidenceHashUsed(bytes32)":"bc5b4fcb","registry()":"7b103999","requestUnlock(bytes32,bytes,bytes32,bytes32,bytes32,uint64,bytes)":"3a229a95"},"id":25}