{"abi":[{"type":"constructor","inputs":[{"name":"rsa_","type":"address","internalType":"contract IGroth16Verifier"},{"name":"ecdsa_","type":"address","internalType":"contract IGroth16Verifier"},{"name":"initialRoot","type":"bytes32","internalType":"bytes32"},{"name":"initialAdmin","type":"address","internalType":"address"}],"stateMutability":"nonpayable"},{"type":"function","name":"MAX_AGE","inputs":[],"outputs":[{"name":"","type":"uint64","internalType":"uint64"}],"stateMutability":"view"},{"type":"function","name":"RELEASE_TIMEOUT","inputs":[],"outputs":[{"name":"","type":"uint64","internalType":"uint64"}],"stateMutability":"view"},{"type":"function","name":"admin","inputs":[],"outputs":[{"name":"","type":"address","internalType":"address"}],"stateMutability":"view"},{"type":"function","name":"bindings","inputs":[{"name":"","type":"address","internalType":"address"}],"outputs":[{"name":"status","type":"uint8","internalType":"enum QKBRegistry.Status"},{"name":"algorithmTag","type":"uint8","internalType":"uint8"},{"name":"boundAt","type":"uint64","internalType":"uint64"},{"name":"expiredAt","type":"uint64","internalType":"uint64"},{"name":"ctxHash","type":"bytes32","internalType":"bytes32"},{"name":"declHash","type":"bytes32","internalType":"bytes32"},{"name":"nullifier","type":"bytes32","internalType":"bytes32"}],"stateMutability":"view"},{"type":"function","name":"cancelReleasePending","inputs":[{"name":"p","type":"tuple","internalType":"struct QKBVerifier.Proof","components":[{"name":"a","type":"uint256[2]","internalType":"uint256[2]"},{"name":"b","type":"uint256[2][2]","internalType":"uint256[2][2]"},{"name":"c","type":"uint256[2]","internalType":"uint256[2]"}]},{"name":"i","type":"tuple","internalType":"struct QKBVerifier.Inputs","components":[{"name":"pkX","type":"uint256[4]","internalType":"uint256[4]"},{"name":"pkY","type":"uint256[4]","internalType":"uint256[4]"},{"name":"ctxHash","type":"bytes32","internalType":"bytes32"},{"name":"rTL","type":"bytes32","internalType":"bytes32"},{"name":"declHash","type":"bytes32","internalType":"bytes32"},{"name":"timestamp","type":"uint64","internalType":"uint64"},{"name":"algorithmTag","type":"uint8","internalType":"uint8"},{"name":"nullifier","type":"bytes32","internalType":"bytes32"}]}],"outputs":[],"stateMutability":"nonpayable"},{"type":"function","name":"ecdsaVerifier","inputs":[],"outputs":[{"name":"","type":"address","internalType":"contract IGroth16Verifier"}],"stateMutability":"view"},{"type":"function","name":"escrowCommitment","inputs":[{"name":"pkAddr","type":"address","internalType":"address"}],"outputs":[{"name":"","type":"bytes32","internalType":"bytes32"}],"stateMutability":"view"},{"type":"function","name":"escrowIdToPkAddr","inputs":[{"name":"","type":"bytes32","internalType":"bytes32"}],"outputs":[{"name":"","type":"address","internalType":"address"}],"stateMutability":"view"},{"type":"function","name":"escrows","inputs":[{"name":"","type":"address","internalType":"address"}],"outputs":[{"name":"escrowId","type":"bytes32","internalType":"bytes32"},{"name":"arbitrator","type":"address","internalType":"address"},{"name":"expiry","type":"uint64","internalType":"uint64"},{"name":"releasePendingAt","type":"uint64","internalType":"uint64"},{"name":"state","type":"uint8","internalType":"enum QKBRegistry.EscrowState"}],"stateMutability":"view"},{"type":"function","name":"expire","inputs":[{"name":"pkAddr","type":"address","internalType":"address"},{"name":"sig","type":"bytes","internalType":"bytes"}],"outputs":[],"stateMutability":"nonpayable"},{"type":"function","name":"finalizeRelease","inputs":[{"name":"escrowId","type":"bytes32","internalType":"bytes32"}],"outputs":[],"stateMutability":"nonpayable"},{"type":"function","name":"isActiveAt","inputs":[{"name":"pkAddr","type":"address","internalType":"address"},{"name":"t","type":"uint64","internalType":"uint64"}],"outputs":[{"name":"","type":"bool","internalType":"bool"}],"stateMutability":"view"},{"type":"function","name":"isEscrowActive","inputs":[{"name":"pkAddr","type":"address","internalType":"address"}],"outputs":[{"name":"","type":"bool","internalType":"bool"}],"stateMutability":"view"},{"type":"function","name":"notifyReleasePending","inputs":[{"name":"escrowId","type":"bytes32","internalType":"bytes32"}],"outputs":[],"stateMutability":"nonpayable"},{"type":"function","name":"nullifierToPk","inputs":[{"name":"","type":"bytes32","internalType":"bytes32"}],"outputs":[{"name":"","type":"address","internalType":"address"}],"stateMutability":"view"},{"type":"function","name":"register","inputs":[{"name":"p","type":"tuple","internalType":"struct QKBVerifier.Proof","components":[{"name":"a","type":"uint256[2]","internalType":"uint256[2]"},{"name":"b","type":"uint256[2][2]","internalType":"uint256[2][2]"},{"name":"c","type":"uint256[2]","internalType":"uint256[2]"}]},{"name":"i","type":"tuple","internalType":"struct QKBVerifier.Inputs","components":[{"name":"pkX","type":"uint256[4]","internalType":"uint256[4]"},{"name":"pkY","type":"uint256[4]","internalType":"uint256[4]"},{"name":"ctxHash","type":"bytes32","internalType":"bytes32"},{"name":"rTL","type":"bytes32","internalType":"bytes32"},{"name":"declHash","type":"bytes32","internalType":"bytes32"},{"name":"timestamp","type":"uint64","internalType":"uint64"},{"name":"algorithmTag","type":"uint8","internalType":"uint8"},{"name":"nullifier","type":"bytes32","internalType":"bytes32"}]}],"outputs":[],"stateMutability":"nonpayable"},{"type":"function","name":"registerEscrow","inputs":[{"name":"escrowId","type":"bytes32","internalType":"bytes32"},{"name":"arbitrator","type":"address","internalType":"address"},{"name":"expiry","type":"uint64","internalType":"uint64"},{"name":"p","type":"tuple","internalType":"struct QKBVerifier.Proof","components":[{"name":"a","type":"uint256[2]","internalType":"uint256[2]"},{"name":"b","type":"uint256[2][2]","internalType":"uint256[2][2]"},{"name":"c","type":"uint256[2]","internalType":"uint256[2]"}]},{"name":"i","type":"tuple","internalType":"struct QKBVerifier.Inputs","components":[{"name":"pkX","type":"uint256[4]","internalType":"uint256[4]"},{"name":"pkY","type":"uint256[4]","internalType":"uint256[4]"},{"name":"ctxHash","type":"bytes32","internalType":"bytes32"},{"name":"rTL","type":"bytes32","internalType":"bytes32"},{"name":"declHash","type":"bytes32","internalType":"bytes32"},{"name":"timestamp","type":"uint64","internalType":"uint64"},{"name":"algorithmTag","type":"uint8","internalType":"uint8"},{"name":"nullifier","type":"bytes32","internalType":"bytes32"}]}],"outputs":[],"stateMutability":"nonpayable"},{"type":"function","name":"revokeEscrow","inputs":[{"name":"reasonHash","type":"bytes32","internalType":"bytes32"},{"name":"p","type":"tuple","internalType":"struct QKBVerifier.Proof","components":[{"name":"a","type":"uint256[2]","internalType":"uint256[2]"},{"name":"b","type":"uint256[2][2]","internalType":"uint256[2][2]"},{"name":"c","type":"uint256[2]","internalType":"uint256[2]"}]},{"name":"i","type":"tuple","internalType":"struct QKBVerifier.Inputs","components":[{"name":"pkX","type":"uint256[4]","internalType":"uint256[4]"},{"name":"pkY","type":"uint256[4]","internalType":"uint256[4]"},{"name":"ctxHash","type":"bytes32","internalType":"bytes32"},{"name":"rTL","type":"bytes32","internalType":"bytes32"},{"name":"declHash","type":"bytes32","internalType":"bytes32"},{"name":"timestamp","type":"uint64","internalType":"uint64"},{"name":"algorithmTag","type":"uint8","internalType":"uint8"},{"name":"nullifier","type":"bytes32","internalType":"bytes32"}]}],"outputs":[],"stateMutability":"nonpayable"},{"type":"function","name":"revokeNullifier","inputs":[{"name":"nullifier","type":"bytes32","internalType":"bytes32"},{"name":"reasonHash","type":"bytes32","internalType":"bytes32"}],"outputs":[],"stateMutability":"nonpayable"},{"type":"function","name":"revokedNullifiers","inputs":[{"name":"","type":"bytes32","internalType":"bytes32"}],"outputs":[{"name":"","type":"bytes32","internalType":"bytes32"}],"stateMutability":"view"},{"type":"function","name":"rsaVerifier","inputs":[],"outputs":[{"name":"","type":"address","internalType":"contract IGroth16Verifier"}],"stateMutability":"view"},{"type":"function","name":"setAdmin","inputs":[{"name":"newAdmin","type":"address","internalType":"address"}],"outputs":[],"stateMutability":"nonpayable"},{"type":"function","name":"setEcdsaVerifier","inputs":[{"name":"newVerifier","type":"address","internalType":"contract IGroth16Verifier"}],"outputs":[],"stateMutability":"nonpayable"},{"type":"function","name":"setRsaVerifier","inputs":[{"name":"newVerifier","type":"address","internalType":"contract IGroth16Verifier"}],"outputs":[],"stateMutability":"nonpayable"},{"type":"function","name":"trustedListRoot","inputs":[],"outputs":[{"name":"","type":"bytes32","internalType":"bytes32"}],"stateMutability":"view"},{"type":"function","name":"updateTrustedListRoot","inputs":[{"name":"newRoot","type":"bytes32","internalType":"bytes32"}],"outputs":[],"stateMutability":"nonpayable"},{"type":"function","name":"usedNullifiers","inputs":[{"name":"","type":"bytes32","internalType":"bytes32"}],"outputs":[{"name":"","type":"bool","internalType":"bool"}],"stateMutability":"view"},{"type":"event","name":"AdminTransferred","inputs":[{"name":"oldAdmin","type":"address","indexed":true,"internalType":"address"},{"name":"newAdmin","type":"address","indexed":true,"internalType":"address"}],"anonymous":false},{"type":"event","name":"BindingExpired","inputs":[{"name":"pkAddr","type":"address","indexed":true,"internalType":"address"}],"anonymous":false},{"type":"event","name":"BindingRegistered","inputs":[{"name":"pkAddr","type":"address","indexed":true,"internalType":"address"},{"name":"algorithmTag","type":"uint8","indexed":true,"internalType":"uint8"},{"name":"ctxHash","type":"bytes32","indexed":false,"internalType":"bytes32"},{"name":"declHash","type":"bytes32","indexed":false,"internalType":"bytes32"},{"name":"nullifier","type":"bytes32","indexed":false,"internalType":"bytes32"}],"anonymous":false},{"type":"event","name":"EscrowRegistered","inputs":[{"name":"pkAddr","type":"address","indexed":true,"internalType":"address"},{"name":"escrowId","type":"bytes32","indexed":true,"internalType":"bytes32"},{"name":"arbitrator","type":"address","indexed":false,"internalType":"address"},{"name":"expiry","type":"uint64","indexed":false,"internalType":"uint64"}],"anonymous":false},{"type":"event","name":"EscrowReleaseCancelled","inputs":[{"name":"escrowId","type":"bytes32","indexed":true,"internalType":"bytes32"},{"name":"pkAddr","type":"address","indexed":true,"internalType":"address"}],"anonymous":false},{"type":"event","name":"EscrowReleasePendingRequested","inputs":[{"name":"escrowId","type":"bytes32","indexed":true,"internalType":"bytes32"},{"name":"arbitrator","type":"address","indexed":true,"internalType":"address"},{"name":"at","type":"uint64","indexed":false,"internalType":"uint64"}],"anonymous":false},{"type":"event","name":"EscrowReleased","inputs":[{"name":"escrowId","type":"bytes32","indexed":true,"internalType":"bytes32"},{"name":"arbitrator","type":"address","indexed":true,"internalType":"address"}],"anonymous":false},{"type":"event","name":"EscrowRevoked","inputs":[{"name":"pkAddr","type":"address","indexed":true,"internalType":"address"},{"name":"escrowId","type":"bytes32","indexed":true,"internalType":"bytes32"},{"name":"reasonHash","type":"bytes32","indexed":false,"internalType":"bytes32"}],"anonymous":false},{"type":"event","name":"NullifierRevoked","inputs":[{"name":"nullifier","type":"bytes32","indexed":true,"internalType":"bytes32"},{"name":"pkAddr","type":"address","indexed":true,"internalType":"address"},{"name":"reasonHash","type":"bytes32","indexed":false,"internalType":"bytes32"}],"anonymous":false},{"type":"event","name":"TrustedListRootUpdated","inputs":[{"name":"oldRoot","type":"bytes32","indexed":false,"internalType":"bytes32"},{"name":"newRoot","type":"bytes32","indexed":false,"internalType":"bytes32"}],"anonymous":false},{"type":"event","name":"VerifierUpdated","inputs":[{"name":"algorithmTag","type":"uint8","indexed":true,"internalType":"uint8"},{"name":"oldVerifier","type":"address","indexed":false,"internalType":"address"},{"name":"newVerifier","type":"address","indexed":false,"internalType":"address"}],"anonymous":false},{"type":"error","name":"AlreadyBound","inputs":[]},{"type":"error","name":"BadExpireSig","inputs":[]},{"type":"error","name":"BindingFromFuture","inputs":[]},{"type":"error","name":"BindingTooOld","inputs":[]},{"type":"error","name":"EscrowAlreadyReleased","inputs":[]},{"type":"error","name":"EscrowAlreadyRevoked","inputs":[]},{"type":"error","name":"EscrowExists","inputs":[]},{"type":"error","name":"EscrowExpiryInPast","inputs":[]},{"type":"error","name":"EscrowReleasePending","inputs":[]},{"type":"error","name":"InvalidProof","inputs":[]},{"type":"error","name":"NoEscrow","inputs":[]},{"type":"error","name":"NotAdmin","inputs":[]},{"type":"error","name":"NotArbitrator","inputs":[]},{"type":"error","name":"NotBound","inputs":[]},{"type":"error","name":"NullifierAlreadyRevoked","inputs":[]},{"type":"error","name":"NullifierUsed","inputs":[]},{"type":"error","name":"RootMismatch","inputs":[]},{"type":"error","name":"UnknownAlgorithm","inputs":[]},{"type":"error","name":"UnknownEscrowId","inputs":[]},{"type":"error","name":"UnknownNullifier","inputs":[]},{"type":"error","name":"WrongState","inputs":[]},{"type":"error","name":"ZeroAddress","inputs":[]}],"bytecode":{"object":"0x608034620001b557601f6200223138819003918201601f191683019291906001600160401b03841183851017620001b9578160809284926040968752833981010312620001b5576200005181620001cd565b6200005f60208301620001cd565b906060848401519301519060018060a01b0390818316809303620001b5578116928315620001a45716928315620001935781156200019357925f62000160937ff5da341b42f7b3ded77a99245db2011e2bfbcf4841da2793e8919080c9c5ba7c878560019862000182978a8060a01b0319868189541617885588818d5416178c55826002556003541617600355825191867ff8ccb027dfcd135e000e9d45e6cc2d662578a8825d4c45b5e32e0adf67e79ec68180a38582526020820152a186515f81526001600160a01b0390911660208201527fed3e33a70ec4417f1f470c4efd7e210336fa1b2ac4182d8aa0b6b034897583d39485919081906040820190565b0390a284515f81526001600160a01b0390911660208201529081906040820190565b0390a25161204e9081620001e38239f35b845163d92e233d60e01b8152600490fd5b855163d92e233d60e01b8152600490fd5b5f80fd5b634e487b7160e01b5f52604160045260245ffd5b51906001600160a01b0382168203620001b55756fe6080604081815260049182361015610015575f80fd5b5f3560e01c90816309f4411c14611894575080630d35c7901461185a5780630dcaeaf21461183d57806319113c1b14611815578063206137aa146117e95780632cd9b80f146115e957806338d2e815146112c1578063477230b2146112455780634b7f352e146112275780635e0471ed1461115457806360a2cf3b1461112d578063704b6c021461109d5780637802281314610ffa5780637c66cea214610f1d5780639796138614610ef65780639b2eeba614610e65578063a485a8b514610e36578063b7b21ce614610e0a578063bea9bed014610d26578063c3cce92714610926578063cea76143146108f7578063d29aff3014610733578063e205f53614610684578063e904f66714610656578063f08a076714610639578063f851a440146106115763fa20d5bc14610148575f80fd5b3461053c5761032036600319011261053c5781359060249081356001600160a01b038181169182900361053c57604435906001600160401b0380831680930361053c57610100918260631936011261053c576101c03661016319011261053c57841561060157428411156105f1576102e43560ff811680820361053c57806105cf5750815f5416905b6102843560025481036105bf5788519160608301838110878211176105ad57808b52366083121561053c5761020581611a06565b60a48136821161053c576064905b82821061059d5750505083523660c3121561053c5789519661023488611a06565b610124938836861161053c578c60a4915b878310610583575050506020988982015236610143121561053c578b5161026b81611a06565b806101649636881161053c578b90915b888310610573575050508c8201528b51918201958287108988111761056057868d5236610183121561053c576102b0876119d7565b866101e49736891161053c578b88915b8a831061055057505050835236610203121561053c578c51946102e2866119d7565b856102649636881161053c578c8a915b898310610540575090508501528d86359085015260608401526102a43560808401526102c43593898516850361053c5761033e9460a085015260c08401526103043560e0840152611d70565b1561052c5790839291895191610353836119d7565b87835b8583106105195750505089519261036c846119d7565b87845b83831061050657505050509061038491611f8e565b1696875f5289845260ff875f20541660038110156104e3576001036104f657875f526008845260ff6002885f200154881c1660058110156104e3576104d35786519260a08401848110828211176104c15788528984526002858501948886528981019588875260608201965f88526080830196600188528d5f5260088a528c5f2093518455600184019251168254916001600160401b0360a01b905160a01b169163ffffffff60e01b16171790550193511690835492519a60058c10156104b057505060ff60401b7f425689b9073cb608fdb75cac0bed863b91c519b7354ea9719adede8c93661eea98999a881b169168ffffffffffffffffff191617179055865f5260098152835f20866bffffffffffffffffffffffff60a01b8254161790558351928352820152a3005b602190634e487b7160e01b5f52525ffd5b8260418d634e487b7160e01b5f52525ffd5b8651631e76f79160e01b81528a90fd5b50634e487b7160e01b5f90815260218b52fd5b865163179435b360e01b81528a90fd5b823581528796509181019189910161036f565b8235815287965091810191899101610356565b88516309bde33960e01b81528c90fd5b5f80fd5b82358152918101918e91016102f2565b82358152918101918d91016102c0565b8f60418f91634e487b7160e01b5f52525ffd5b82358152918101918c910161027b565b6020906105903685611a8a565b8152019101908d90610245565b8135815260209182019101610213565b8b60418f634e487b7160e01b5f52525ffd5b8851635ade045560e01b81528c90fd5b6001036105e1578160015416906101d1565b8651636800dfd760e11b81528a90fd5b8551630f1539ad60e41b81528990fd5b855163d92e233d60e01b81528990fd5b503461053c575f36600319011261053c5760035490516001600160a01b039091168152602090f35b503461053c575f36600319011261053c57602090516202a3008152f35b503461053c57602036600319011261053c5760209061067b610676611903565b611ca9565b90519015158152f35b503461053c57602036600319011261053c576001600160a01b03918035838116919082900361053c578360035416330361072557811561071757600180546001600160a01b031981168417825584516001600160a01b039187168216815290841660208201527fed3e33a70ec4417f1f470c4efd7e210336fa1b2ac4182d8aa0b6b034897583d39080604081015b0390a2005b825163d92e233d60e01b8152fd5b8251637bfa4b9f60e01b8152fd5b503461053c5761074236611919565b90610180820160ff61075382611a42565b166108c457505f546001600160a01b03165b600254610120840135036108b457610781610791923690611acf565b61078b3685611b80565b91611d70565b156108a6576107c06107a33683611a50565b6001600160a01b03926107ba903690608001611a50565b90611f8e565b1691825f528060205260ff825f20541660038110156108935760010361088557825f526008602052815f2091600283019182549160ff83821c166005811015610872576002036108655761081c6001600160401b038416611c36565b42101561086557505068ffffffffffffffffff191668010000000000000000179055547fd81e9f0d8a7e23146ba98fbee01f90e3a268d77e78b4fe37e1255b0dc1710fdd5f80a3005b51636f20b45d60e11b8152fd5b602183634e487b7160e01b5f525260245ffd5b905163179435b360e01b8152fd5b602182634e487b7160e01b5f525260245ffd5b50516309bde33960e01b8152fd5b50505051635ade045560e01b8152fd5b60ff6108d1600192611a42565b16036108e8576001546001600160a01b0316610765565b505051636800dfd760e11b8152fd5b503461053c57602036600319011261053c57602091355f526009825260018060a01b03815f2054169051908152f35b503461053c576102e036600319011261053c576101008060231936011261053c576101c03661012319011261053c576102a43560ff811680820361053c5780610d0d57505f546001600160a01b0316905b610244356002548103610cfd578451936001600160401b03906060860182811187821017610cea57808852366043121561053c576109b481611a06565b60648136821161053c576024905b828210610cda575050508652366083121561053c578651956109e387611a06565b60e48736821161053c57896064915b838310610cc057505050506020968782015236610103121561053c57875195610a1a87611a06565b866101249736891161053c578960e4915b8a8310610cb0575050508983015288519283019583871085881117610c9d57868a5236610143121561053c57610a60876119d7565b866101a49736891161053c578a8a915b8a8310610c8d575050508452366101c3121561053c57895195610a92876119d7565b866102249736891161053c578b8a915b8a8310610c7d5750905086015286358b860152606085015261026435608085015261028435948516850361053c57610aec9460a085015260c08401526102c43560e0840152611d70565b15610c6d57845192610afd846119d7565b84845b848310610c5d57505050845191610b16836119d7565b84835b838310610c4d57506001600160a01b0394610b399493509150611f8e9050565b1690815f5283815260ff835f2054166003811015610c3a57600103610c2b57815f5260088152825f2093600285019485549560ff87871c166005811015610c18578015610c0857838114610bf85760028114610be857600314610bd857680400000000000000007fc46fc64f94d633e378ef83934147cecf832867cb31b98e3f75e1be7788c08a9695969760ff60401b191617905554945190358152a3005b8551631f0a683560e11b81528390fd5b8651633fdf896960e11b81528490fd5b86516317e3c89160e21b81528490fd5b865163769cabf160e01b81528490fd5b602184634e487b7160e01b5f525260245ffd5b50505163179435b360e01b8152fd5b602185634e487b7160e01b5f525260245ffd5b8235815291810191869101610b19565b8235815291810191869101610b00565b84516309bde33960e01b81528690fd5b82358152918101918d9101610aa2565b82358152918101918c9101610a70565b60418b634e487b7160e01b5f525260245ffd5b82358152918101918b9101610a2b565b602090610ccd3685611a8a565b8152019101908a906109f2565b81358152602091820191016109c2565b604189634e487b7160e01b5f525260245ffd5b8451635ade045560e01b81528690fd5b6001036108e8576001546001600160a01b031690610977565b503461053c57602036600319011261053c57813590815f52600960205260018060a01b0380825f2054168015610dfa575f526008602052815f20906001820154163303610dea5760020180549360ff85841c16600581101561089357600103610ddc5750680200000000000000006001600160401b034216809568ffffffffffffffffff191617179055519182527faf6c3f2e26807324233ac4c01987c722cb3d1d25e45553374474dd4050f74ef260203393a3005b8251636f20b45d60e11b8152fd5b815163667f86ef60e01b81528490fd5b8251630299559160e51b81528590fd5b503461053c57602036600319011261053c57602090610e2f610e2a611903565b611c5a565b9051908152f35b503461053c57602036600319011261053c57602091355f526006825260018060a01b03815f2054169051908152f35b503461053c57602036600319011261053c576001600160a01b03918035838116919082900361053c5783600354163303610725578115610717575f80546001600160a01b031981168417825584516001600160a01b039187168216815290841660208201527fed3e33a70ec4417f1f470c4efd7e210336fa1b2ac4182d8aa0b6b034897583d3908060408101610712565b503461053c57602036600319011261053c57602091355f5260078252805f20549051908152f35b50903461053c57602036600319011261053c57803591825f52600960205260018060a01b0380825f2054168015610feb575f526008602052815f20906001820154163303610fdd576002019182549160ff83821c1660058110156108725760020361086557610f946001600160401b038416611c36565b421061086557505068ff000000000000000019166803000000000000000017905533907f376b9e73ea20b749b533d8617356ec5071166c91c1ef89d834667c279eba9d925f80a3005b505163667f86ef60e01b8152fd5b505051630299559160e51b8152fd5b503461053c57602036600319011261053c576001600160a01b0361101c611903565b165f5281602052805f209081549160ff8316926001600160401b036001830154916003600285015494015494805196600381101561108a5760e09850875260ff8260081c166020880152828260101c169087015260501c166060850152608084015260a083015260c0820152f35b602189634e487b7160e01b5f525260245ffd5b50903461053c57602036600319011261053c576110b8611903565b6003546001600160a01b038082169391923385900361111d57169384156111105750506001600160a01b03191682176003557ff8ccb027dfcd135e000e9d45e6cc2d662578a8825d4c45b5e32e0adf67e79ec65f80a3005b5163d92e233d60e01b8152fd5b8551637bfa4b9f60e01b81528390fd5b503461053c575f36600319011261053c575f5490516001600160a01b039091168152602090f35b50903461053c578160031936011261053c57600354813591602435916001600160a01b0391908216330361121957821561120b57835f52600560205260ff855f205416156111fd57835f526007602052845f20546111ef57507f11bcbef9ac8f1457a4932ecbef4b4393494271950bcb126c02691796795aaec391602091845f526007835281865f205560068352855f2054169451908152a3005b84516394b212db60e01b8152fd5b8451630bef16f960e01b8152fd5b845163d92e233d60e01b8152fd5b8451637bfa4b9f60e01b8152fd5b503461053c575f36600319011261053c576020906002549051908152f35b503461053c57602036600319011261053c576001600160a01b0380611268611903565b165f5260086020526002825f208054936001820154916001600160401b0393849101549260ff84841c169583519788528116602088015260a01c169085015216606083015260058110156108725760a092506080820152f35b50903461053c576112d136611919565b9061018082019360ff91826112e587611a42565b166115b5575f546001600160a01b0316905b600254610120860135036115a5579061131461131e923690611acf565b61078b3687611b80565b156115965761016083019361133285611c22565b946001600160401b039586429116116115875761134f8691611c22565b166276a7008101809111611574574211611566576101a084013592835f526020966005885281845f205416611556576113883687611a50565b6001600160a01b03906113a2906107ba3660808b01611a50565b1696875f5283895282855f2054166003811015610c3a57611546575f86815260058a52858120805460ff1916600117905560068a5285902080546001600160a01b031916891790556113f382611a42565b906101406101008901359801359486519260e084018481108482111761153357928b88938e8d948d978d52600189528a828a0191168152828d8a0192864216845260608b01955f875260808c0198895260a08c01998a5260c08c019a8b525f52528c5f20985192600384101561152057506003947fb95136a1315b118cb25d67315d18abfb037563476f620d51d72cfa06a54229419f9d9b9996929460609f9d9b98946115109a966114fb948d69ffffffffffffffff000061ff008d54935160081b16935160101b1693169069ffffffffffffffffffff19161717178855511686908154906001600160401b0360501b9060501b16906001600160401b0360501b1916179055565b51600185015551600284015551910155611a42565b16978251948552840152820152a3005b602190634e487b7160e01b5f525260245ffd5b604183634e487b7160e01b5f525260245ffd5b845163682a906560e01b81528490fd5b8351639281498560e01b81528390fd5b9051630b3e39f360e01b8152fd5b601182634e487b7160e01b5f525260245ffd5b5090516302aa2c0760e61b8152fd5b516309bde33960e01b81528390fd5b8251635ade045560e01b81528690fd5b6001836115c188611a42565b16036115d9576001546001600160a01b0316906112f7565b8151636800dfd760e11b81528590fd5b50903461053c578160031936011261053c57611603611903565b90602435906001600160401b039081831161053c573660238401121561053c57828101359482861161053c57366024878601011161053c5760018060a01b0380951694855f5260209683602052825f209586549860ff8a1660038110156117d6576001036117c657845191858301838110898211176117b357918a94928796949652600d86526c514b425f4558504952455f563160981b6020870152865191898d896020860194608086528a519a8b60a08901525f5b8c811061178257505050858a60249594611707948c60c0956117119d9e9f875f918801015285015246606085015260101c166080830152601f801991011681010360a0810187520185611a21565b0191519020611cf7565b160361177557505071ffffffffffffffff000000000000000000ff19909316429390931660501b67ffffffffffffffff60501b16929092176002179091557f89846be8e0c27bc70bc9593293a079935b56b9ff9d7fb3a4df9bc2044d97fc755f80a2005b5163d2fff0fb60e01b8152fd5b92509350809496989a95979950809250818401015160c0828a01015201898f91938f9997959a989694938e946116b9565b604188634e487b7160e01b5f525260245ffd5b845163179435b360e01b81528690fd5b602187634e487b7160e01b5f525260245ffd5b503461053c57602036600319011261053c57602091355f526005825260ff815f20541690519015158152f35b503461053c575f36600319011261053c5760015490516001600160a01b039091168152602090f35b503461053c575f36600319011261053c57602090516276a7008152f35b503461053c578060031936011261053c57611873611903565b90602435916001600160401b038316830361053c5760209261067b91611946565b90503461053c57602036600319011261053c57600354833591906001600160a01b031633036118f5577ff5da341b42f7b3ded77a99245db2011e2bfbcf4841da2793e8919080c9c5ba7c8383600254908060025582519182526020820152a1005b637bfa4b9f60e01b81528390fd5b600435906001600160a01b038216820361053c57565b9060031982016102c0811261053c576101001361053c576101c060049261010319011261053c5761010490565b60018060a01b03165f52600460205260405f2090815460ff811660038110156119c35780156119b2576001600160401b0380931693838360101c1685106119ba57600301545f52600760205260405f20546119b2576001146119aa5760501c161190565b505050600190565b505050505f90565b50505050505f90565b634e487b7160e01b5f52602160045260245ffd5b608081019081106001600160401b038211176119f257604052565b634e487b7160e01b5f52604160045260245ffd5b604081019081106001600160401b038211176119f257604052565b90601f801991011681019081106001600160401b038211176119f257604052565b3560ff8116810361053c5790565b919060405192611a5f846119d7565b83906080810192831161053c57905b828210611a7a57505050565b8135815260209182019101611a6e565b9080601f8301121561053c5760405191611aa383611a06565b82906040810192831161053c57905b828210611abf5750505090565b8135815260209182019101611ab2565b91906101008382031261053c576040805191606083018381106001600160401b038211176119f25782528294611b058282611a8a565b845281605f8201121561053c578251611b1d81611a06565b8060c083019284841161053c5785809101915b848310611b4e575050506020850152611b499190611a8a565b910152565b602090611b5b8785611a8a565b8152019101908590611b30565b9080601f8301121561053c57611b7d91611a50565b90565b9190916101c08184031261053c57604051906001600160401b03610100808401828111858210176119f257604052611bc88496611bbd8186611b68565b865260808501611b68565b6020850152820135604084015261012082013560608401526101408201356080840152610160820135908116810361053c5760a083015261018081013560ff8116810361053c5760e0916101a09160c08501520135910152565b356001600160401b038116810361053c5790565b906202a3008201809211611c4657565b634e487b7160e01b5f52601160045260245ffd5b60018060a01b03165f52600860205260405f2060ff600282015460401c1660058110156119c357600103611ca4576001600160401b03600182015460a01c16421015611ca4575490565b505f90565b60018060a01b03165f52600860205260405f2060ff600282015460401c1660058110156119c357600103611ca4576001015460a01c6001600160401b0316421015611cf357600190565b5f90565b9091604103611d435760805f91602080946040519283526040810135851a82840152803560408401520135606082015282805260015afa15611d38575f5190565b6040513d5f823e3d90fd5b50505f90565b5f915b60028310611d5957505050565b600190825181526020809101920192019190611d4c565b608083019081517f0644b0f3dc603ac3450feabf38427035148cd934dd766836cf9b7c439315c8968114908115611f64575b50156119b2576040938451906101c090818301916001600160401b0390848410828511176119f25791611e8e97949260e0929796948a52368437805151835260209687968783510151888601528a835101518b860152606083510151606086015260608884018051516080880152898151015160a08801528c8151015160c0880152510151848601528a83015161010086015260608301516101208601525161014085015260a08201511661016084015260ff60c08201511661018084015201516101a08201528251928785820151910151908851978895638d15f88f60e01b87526004870190611d49565b5f89604487015b60028310611f3b5750505050611eaf9060c4850190611d49565b5f61010484015b600e8210611f2257506102c4928492506001600160a01b031690505afa928315611f1957505f92611ee657505090565b90809250813d8311611f12575b611efd8183611a21565b8101031261053c5751801515810361053c5790565b503d611ef3565b513d5f823e3d90fd5b8251815286958895509283019260019092019101611eb6565b83959750611f51816001959a9496989a51611d49565b0193019101908695939189899694611e95565b7f08646980dee95e1d7b0d344b619edd5ada08ed7525b1af019c214023021492b59150145f611da2565b611fb7611fda9160608151602083015190604084015160801b9160401b171791015160c01b1790565b9160608151602083015190604084015160801b9160401b171791015160c01b1790565b906040519160208301918252604083015260408252606082018281106001600160401b038211176119f257604052905190206001600160a01b03169056fea2646970667358221220f0ebc2081ee43d8538f1a5bb81fff52d18228e9d30f34e56b2157c024b76a70364736f6c63430008180033","linkReferences":{}},"methodIdentifiers":{"MAX_AGE()":"0dcaeaf2","RELEASE_TIMEOUT()":"f08a0767","admin()":"f851a440","bindings(address)":"78022813","cancelReleasePending((uint256[2],uint256[2][2],uint256[2]),(uint256[4],uint256[4],bytes32,bytes32,bytes32,uint64,uint8,bytes32))":"d29aff30","ecdsaVerifier()":"19113c1b","escrowCommitment(address)":"b7b21ce6","escrowIdToPkAddr(bytes32)":"cea76143","escrows(address)":"477230b2","expire(address,bytes)":"2cd9b80f","finalizeRelease(bytes32)":"7c66cea2","isActiveAt(address,uint64)":"0d35c790","isEscrowActive(address)":"e904f667","notifyReleasePending(bytes32)":"bea9bed0","nullifierToPk(bytes32)":"a485a8b5","register((uint256[2],uint256[2][2],uint256[2]),(uint256[4],uint256[4],bytes32,bytes32,bytes32,uint64,uint8,bytes32))":"38d2e815","registerEscrow(bytes32,address,uint64,(uint256[2],uint256[2][2],uint256[2]),(uint256[4],uint256[4],bytes32,bytes32,bytes32,uint64,uint8,bytes32))":"fa20d5bc","revokeEscrow(bytes32,(uint256[2],uint256[2][2],uint256[2]),(uint256[4],uint256[4],bytes32,bytes32,bytes32,uint64,uint8,bytes32))":"c3cce927","revokeNullifier(bytes32,bytes32)":"5e0471ed","revokedNullifiers(bytes32)":"97961386","rsaVerifier()":"60a2cf3b","setAdmin(address)":"704b6c02","setEcdsaVerifier(address)":"e205f536","setRsaVerifier(address)":"9b2eeba6","trustedListRoot()":"4b7f352e","updateTrustedListRoot(bytes32)":"09f4411c","usedNullifiers(bytes32)":"206137aa"},"id":23}