{"abi":[{"type":"function","name":"requestUnlock","inputs":[{"name":"","type":"bytes32","internalType":"bytes32"},{"name":"","type":"bytes","internalType":"bytes"}],"outputs":[],"stateMutability":"pure"},{"type":"event","name":"Unlock","inputs":[{"name":"escrowId","type":"bytes32","indexed":true,"internalType":"bytes32"},{"name":"recipientHybridPk","type":"bytes","indexed":false,"internalType":"bytes"}],"anonymous":false},{"type":"error","name":"Deferred","inputs":[]}],"bytecode":{"object":"0x6080806040523460145760ac90816100198239f35b5f80fdfe60808060405260043610156011575f80fd5b5f3560e01c6313f267f2146023575f80fd5b34607257604036600319011260725760243567ffffffffffffffff8082116072573660238301121560725781600401359081116072573691016024011160725763ef03813960e01b8152600490fd5b5f80fdfea264697066735822122076478017ecd0d5652e3db79f1892b37cdbe98fb3c26fe61a9cd40eecf88a1ccb64736f6c63430008180033","linkReferences":{}},"methodIdentifiers":{"requestUnlock(bytes32,bytes)":"13f267f2"},"id":24}